{
  "_format": "hh-sol-artifact-1",
  "contractName": "CollegeToken",
  "sourceName": "contracts/collegeToken.sol",
  "abi": [
    {
      "inputs": [
        {
          "internalType": "uint256",
          "name": "cap",
          "type": "uint256"
        },
        {
          "internalType": "uint256",
          "name": "reward",
          "type": "uint256"
        }
      ],
      "stateMutability": "nonpayable",
      "type": "constructor"
    },
    {
      "anonymous": false,
      "inputs": [
        {
          "indexed": true,
          "internalType": "address",
          "name": "owner",
          "type": "address"
        },
        {
          "indexed": true,
          "internalType": "address",
          "name": "spender",
          "type": "address"
        },
        {
          "indexed": false,
          "internalType": "uint256",
          "name": "value",
          "type": "uint256"
        }
      ],
      "name": "Approval",
      "type": "event"
    },
    {
      "anonymous": false,
      "inputs": [
        {
          "indexed": true,
          "internalType": "address",
          "name": "from",
          "type": "address"
        },
        {
          "indexed": true,
          "internalType": "address",
          "name": "to",
          "type": "address"
        },
        {
          "indexed": false,
          "internalType": "uint256",
          "name": "value",
          "type": "uint256"
        }
      ],
      "name": "Transfer",
      "type": "event"
    },
    {
      "inputs": [
        {
          "internalType": "address[]",
          "name": "holder",
          "type": "address[]"
        }
      ],
      "name": "airDrop",
      "outputs": [],
      "stateMutability": "nonpayable",
      "type": "function"
    },
    {
      "inputs": [
        {
          "internalType": "address",
          "name": "owner",
          "type": "address"
        },
        {
          "internalType": "address",
          "name": "spender",
          "type": "address"
        }
      ],
      "name": "allowance",
      "outputs": [
        {
          "internalType": "uint256",
          "name": "",
          "type": "uint256"
        }
      ],
      "stateMutability": "view",
      "type": "function"
    },
    {
      "inputs": [
        {
          "internalType": "address",
          "name": "spender",
          "type": "address"
        },
        {
          "internalType": "uint256",
          "name": "amount",
          "type": "uint256"
        }
      ],
      "name": "approve",
      "outputs": [
        {
          "internalType": "bool",
          "name": "",
          "type": "bool"
        }
      ],
      "stateMutability": "nonpayable",
      "type": "function"
    },
    {
      "inputs": [
        {
          "internalType": "address",
          "name": "account",
          "type": "address"
        }
      ],
      "name": "balanceOf",
      "outputs": [
        {
          "internalType": "uint256",
          "name": "",
          "type": "uint256"
        }
      ],
      "stateMutability": "view",
      "type": "function"
    },
    {
      "inputs": [],
      "name": "blockReward",
      "outputs": [
        {
          "internalType": "uint256",
          "name": "",
          "type": "uint256"
        }
      ],
      "stateMutability": "view",
      "type": "function"
    },
    {
      "inputs": [
        {
          "internalType": "uint256",
          "name": "amount",
          "type": "uint256"
        }
      ],
      "name": "burn",
      "outputs": [],
      "stateMutability": "nonpayable",
      "type": "function"
    },
    {
      "inputs": [
        {
          "internalType": "address",
          "name": "account",
          "type": "address"
        },
        {
          "internalType": "uint256",
          "name": "amount",
          "type": "uint256"
        }
      ],
      "name": "burnFrom",
      "outputs": [],
      "stateMutability": "nonpayable",
      "type": "function"
    },
    {
      "inputs": [],
      "name": "cap",
      "outputs": [
        {
          "internalType": "uint256",
          "name": "",
          "type": "uint256"
        }
      ],
      "stateMutability": "view",
      "type": "function"
    },
    {
      "inputs": [],
      "name": "decimals",
      "outputs": [
        {
          "internalType": "uint8",
          "name": "",
          "type": "uint8"
        }
      ],
      "stateMutability": "view",
      "type": "function"
    },
    {
      "inputs": [
        {
          "internalType": "address",
          "name": "spender",
          "type": "address"
        },
        {
          "internalType": "uint256",
          "name": "subtractedValue",
          "type": "uint256"
        }
      ],
      "name": "decreaseAllowance",
      "outputs": [
        {
          "internalType": "bool",
          "name": "",
          "type": "bool"
        }
      ],
      "stateMutability": "nonpayable",
      "type": "function"
    },
    {
      "inputs": [],
      "name": "destroy",
      "outputs": [],
      "stateMutability": "nonpayable",
      "type": "function"
    },
    {
      "inputs": [
        {
          "internalType": "address",
          "name": "spender",
          "type": "address"
        },
        {
          "internalType": "uint256",
          "name": "addedValue",
          "type": "uint256"
        }
      ],
      "name": "increaseAllowance",
      "outputs": [
        {
          "internalType": "bool",
          "name": "",
          "type": "bool"
        }
      ],
      "stateMutability": "nonpayable",
      "type": "function"
    },
    {
      "inputs": [],
      "name": "name",
      "outputs": [
        {
          "internalType": "string",
          "name": "",
          "type": "string"
        }
      ],
      "stateMutability": "view",
      "type": "function"
    },
    {
      "inputs": [],
      "name": "owner",
      "outputs": [
        {
          "internalType": "address payable",
          "name": "",
          "type": "address"
        }
      ],
      "stateMutability": "view",
      "type": "function"
    },
    {
      "inputs": [
        {
          "internalType": "uint256",
          "name": "reward",
          "type": "uint256"
        }
      ],
      "name": "setBlockReward",
      "outputs": [],
      "stateMutability": "nonpayable",
      "type": "function"
    },
    {
      "inputs": [],
      "name": "symbol",
      "outputs": [
        {
          "internalType": "string",
          "name": "",
          "type": "string"
        }
      ],
      "stateMutability": "view",
      "type": "function"
    },
    {
      "inputs": [],
      "name": "totalSupply",
      "outputs": [
        {
          "internalType": "uint256",
          "name": "",
          "type": "uint256"
        }
      ],
      "stateMutability": "view",
      "type": "function"
    },
    {
      "inputs": [
        {
          "internalType": "address",
          "name": "to",
          "type": "address"
        },
        {
          "internalType": "uint256",
          "name": "amount",
          "type": "uint256"
        }
      ],
      "name": "transfer",
      "outputs": [
        {
          "internalType": "bool",
          "name": "",
          "type": "bool"
        }
      ],
      "stateMutability": "nonpayable",
      "type": "function"
    },
    {
      "inputs": [
        {
          "internalType": "address",
          "name": "from",
          "type": "address"
        },
        {
          "internalType": "address",
          "name": "to",
          "type": "address"
        },
        {
          "internalType": "uint256",
          "name": "amount",
          "type": "uint256"
        }
      ],
      "name": "transferFrom",
      "outputs": [
        {
          "internalType": "bool",
          "name": "",
          "type": "bool"
        }
      ],
      "stateMutability": "nonpayable",
      "type": "function"
    }
  ],
  "bytecode": "0x60a06040523480156200001157600080fd5b5060405162002c1438038062002c1483398181016040528101906200003791906200058d565b670de0b6b3a7640000826200004d919062000603565b6040518060400160405280600c81526020017f436f6c6c656765546f6b656e00000000000000000000000000000000000000008152506040518060400160405280600281526020017f43540000000000000000000000000000000000000000000000000000000000008152508160039081620000ca9190620008be565b508060049081620000dc9190620008be565b5050506000811162000125576040517f08c379a00000000000000000000000000000000000000000000000000000000081526004016200011c9062000a06565b60405180910390fd5b80608081815250505033600560006101000a81548173ffffffffffffffffffffffffffffffffffffffff021916908373ffffffffffffffffffffffffffffffffffffffff160217905550620001ae600560009054906101000a900473ffffffffffffffffffffffffffffffffffffffff166a39e7139a8c08fa06000000620001cb60201b60201c565b60b481620001bd919062000603565b600681905550505062000b75565b620001db6200025260201b60201c565b81620001ec6200025c60201b60201c565b620001f8919062000a28565b11156200023c576040517f08c379a0000000000000000000000000000000000000000000000000000000008152600401620002339062000ab3565b60405180910390fd5b6200024e82826200026660201b60201c565b5050565b6000608051905090565b6000600254905090565b620002766200025260201b60201c565b81620002876200025c60201b60201c565b62000293919062000a28565b1115620002d7576040517f08c379a0000000000000000000000000000000000000000000000000000000008152600401620002ce9062000ab3565b60405180910390fd5b620002e98282620002ed60201b60201c565b5050565b600073ffffffffffffffffffffffffffffffffffffffff168273ffffffffffffffffffffffffffffffffffffffff16036200035f576040517f08c379a0000000000000000000000000000000000000000000000000000000008152600401620003569062000b25565b60405180910390fd5b62000373600083836200045a60201b60201c565b806002600082825462000387919062000a28565b92505081905550806000808473ffffffffffffffffffffffffffffffffffffffff1673ffffffffffffffffffffffffffffffffffffffff168152602001908152602001600020600082825401925050819055508173ffffffffffffffffffffffffffffffffffffffff16600073ffffffffffffffffffffffffffffffffffffffff167fddf252ad1be2c89b69c2b068fc378daa952ba7f163c4a11628f55a4df523b3ef836040516200043a919062000b58565b60405180910390a362000456600083836200052d60201b60201c565b5050565b600073ffffffffffffffffffffffffffffffffffffffff168373ffffffffffffffffffffffffffffffffffffffff1614158015620004c457504173ffffffffffffffffffffffffffffffffffffffff168273ffffffffffffffffffffffffffffffffffffffff1614155b8015620004fe5750600073ffffffffffffffffffffffffffffffffffffffff164173ffffffffffffffffffffffffffffffffffffffff1614155b156200051557620005146200053260201b60201c565b5b620005288383836200054860201b60201c565b505050565b505050565b6200054641600654620001cb60201b60201c565b565b505050565b600080fd5b6000819050919050565b620005678162000552565b81146200057357600080fd5b50565b60008151905062000587816200055c565b92915050565b60008060408385031215620005a757620005a66200054d565b5b6000620005b78582860162000576565b9250506020620005ca8582860162000576565b9150509250929050565b7f4e487b7100000000000000000000000000000000000000000000000000000000600052601160045260246000fd5b6000620006108262000552565b91506200061d8362000552565b92508282026200062d8162000552565b91508282048414831517620006475762000646620005d4565b5b5092915050565b600081519050919050565b7f4e487b7100000000000000000000000000000000000000000000000000000000600052604160045260246000fd5b7f4e487b7100000000000000000000000000000000000000000000000000000000600052602260045260246000fd5b60006002820490506001821680620006d057607f821691505b602082108103620006e657620006e562000688565b5b50919050565b60008190508160005260206000209050919050565b60006020601f8301049050919050565b600082821b905092915050565b600060088302620007507fffffffffffffffffffffffffffffffffffffffffffffffffffffffffffffffff8262000711565b6200075c868362000711565b95508019841693508086168417925050509392505050565b6000819050919050565b60006200079f62000799620007938462000552565b62000774565b62000552565b9050919050565b6000819050919050565b620007bb836200077e565b620007d3620007ca82620007a6565b8484546200071e565b825550505050565b600090565b620007ea620007db565b620007f7818484620007b0565b505050565b5b818110156200081f5762000813600082620007e0565b600181019050620007fd565b5050565b601f8211156200086e576200083881620006ec565b620008438462000701565b8101602085101562000853578190505b6200086b620008628562000701565b830182620007fc565b50505b505050565b600082821c905092915050565b6000620008936000198460080262000873565b1980831691505092915050565b6000620008ae838362000880565b9150826002028217905092915050565b620008c9826200064e565b67ffffffffffffffff811115620008e557620008e462000659565b5b620008f18254620006b7565b620008fe82828562000823565b600060209050601f83116001811462000936576000841562000921578287015190505b6200092d8582620008a0565b8655506200099d565b601f1984166200094686620006ec565b60005b82811015620009705784890151825560018201915060208501945060208101905062000949565b868310156200099057848901516200098c601f89168262000880565b8355505b6001600288020188555050505b505050505050565b600082825260208201905092915050565b7f45524332304361707065643a2063617020697320300000000000000000000000600082015250565b6000620009ee601583620009a5565b9150620009fb82620009b6565b602082019050919050565b6000602082019050818103600083015262000a2181620009df565b9050919050565b600062000a358262000552565b915062000a428362000552565b925082820190508082111562000a5d5762000a5c620005d4565b5b92915050565b7f45524332304361707065643a2063617020657863656564656400000000000000600082015250565b600062000a9b601983620009a5565b915062000aa88262000a63565b602082019050919050565b6000602082019050818103600083015262000ace8162000a8c565b9050919050565b7f45524332303a206d696e7420746f20746865207a65726f206164647265737300600082015250565b600062000b0d601f83620009a5565b915062000b1a8262000ad5565b602082019050919050565b6000602082019050818103600083015262000b408162000afe565b9050919050565b62000b528162000552565b82525050565b600060208201905062000b6f600083018462000b47565b92915050565b60805161208362000b9160003960006106e001526120836000f3fe608060405234801561001057600080fd5b50600436106101205760003560e01c806339509351116100ad5780638da5cb5b116100715780638da5cb5b146102f557806395d89b4114610313578063a457c2d714610331578063a9059cbb14610361578063dd62ed3e1461039157610120565b8063395093511461025357806342966c681461028357806370a082311461029f57806379cc6790146102cf57806383197ef0146102eb57610120565b806318160ddd116100f457806318160ddd146101ad5780631a18e707146101cb57806323b872dd146101e7578063313ce56714610217578063355274ea1461023557610120565b8062b6849f1461012557806306fdde0314610141578063095ea7b31461015f5780630ac168a11461018f575b600080fd5b61013f600480360381019061013a919061146c565b6103c1565b005b610149610539565b6040516101569190611549565b60405180910390f35b610179600480360381019061017491906115ff565b6105cb565b604051610186919061165a565b60405180910390f35b6101976105ee565b6040516101a49190611684565b60405180910390f35b6101b56105f4565b6040516101c29190611684565b60405180910390f35b6101e560048036038101906101e0919061169f565b6105fe565b005b61020160048036038101906101fc91906116cc565b6106a4565b60405161020e919061165a565b60405180910390f35b61021f6106d3565b60405161022c919061173b565b60405180910390f35b61023d6106dc565b60405161024a9190611684565b60405180910390f35b61026d600480360381019061026891906115ff565b610704565b60405161027a919061165a565b60405180910390f35b61029d6004803603810190610298919061169f565b61073b565b005b6102b960048036038101906102b49190611756565b61074f565b6040516102c69190611684565b60405180910390f35b6102e960048036038101906102e491906115ff565b610797565b005b6102f36107b7565b005b6102fd610882565b60405161030a91906117a4565b60405180910390f35b61031b6108a8565b6040516103289190611549565b60405180910390f35b61034b600480360381019061034691906115ff565b61093a565b604051610358919061165a565b60405180910390f35b61037b600480360381019061037691906115ff565b6109b1565b604051610388919061165a565b60405180910390f35b6103ab60048036038101906103a691906117bf565b6109d4565b6040516103b89190611684565b60405180910390f35b600560009054906101000a900473ffffffffffffffffffffffffffffffffffffffff1673ffffffffffffffffffffffffffffffffffffffff163373ffffffffffffffffffffffffffffffffffffffff1614610451576040517f08c379a00000000000000000000000000000000000000000000000000000000081526004016104489061184b565b60405180910390fd5b600560009054906101000a900473ffffffffffffffffffffffffffffffffffffffff1673ffffffffffffffffffffffffffffffffffffffff163373ffffffffffffffffffffffffffffffffffffffff16146104e1576040517f08c379a00000000000000000000000000000000000000000000000000000000081526004016104d8906118dd565b60405180910390fd5b60005b8282905081101561053457610521838383818110610505576105046118fd565b5b905060200201602081019061051a9190611756565b6005610a5b565b808061052c9061195b565b9150506104e4565b505050565b606060038054610548906119d2565b80601f0160208091040260200160405190810160405280929190818152602001828054610574906119d2565b80156105c15780601f10610596576101008083540402835291602001916105c1565b820191906000526020600020905b8154815290600101906020018083116105a457829003601f168201915b5050505050905090565b6000806105d6610ac5565b90506105e3818585610acd565b600191505092915050565b60065481565b6000600254905090565b600560009054906101000a900473ffffffffffffffffffffffffffffffffffffffff1673ffffffffffffffffffffffffffffffffffffffff163373ffffffffffffffffffffffffffffffffffffffff161461068e576040517f08c379a00000000000000000000000000000000000000000000000000000000081526004016106859061184b565b60405180910390fd5b60b48161069b9190611a03565b60068190555050565b6000806106af610ac5565b90506106bc858285610c96565b6106c7858585610d22565b60019150509392505050565b60006012905090565b60007f0000000000000000000000000000000000000000000000000000000000000000905090565b60008061070f610ac5565b905061073081858561072185896109d4565b61072b9190611a45565b610acd565b600191505092915050565b61074c610746610ac5565b82610f98565b50565b60008060008373ffffffffffffffffffffffffffffffffffffffff1673ffffffffffffffffffffffffffffffffffffffff168152602001908152602001600020549050919050565b6107a9826107a3610ac5565b83610c96565b6107b38282610f98565b5050565b600560009054906101000a900473ffffffffffffffffffffffffffffffffffffffff1673ffffffffffffffffffffffffffffffffffffffff163373ffffffffffffffffffffffffffffffffffffffff1614610847576040517f08c379a000000000000000000000000000000000000000000000000000000000815260040161083e9061184b565b60405180910390fd5b600560009054906101000a900473ffffffffffffffffffffffffffffffffffffffff1673ffffffffffffffffffffffffffffffffffffffff16ff5b600560009054906101000a900473ffffffffffffffffffffffffffffffffffffffff1681565b6060600480546108b7906119d2565b80601f01602080910402602001604051908101604052809291908181526020018280546108e3906119d2565b80156109305780601f1061090557610100808354040283529160200191610930565b820191906000526020600020905b81548152906001019060200180831161091357829003601f168201915b5050505050905090565b600080610945610ac5565b9050600061095382866109d4565b905083811015610998576040517f08c379a000000000000000000000000000000000000000000000000000000000815260040161098f90611aeb565b60405180910390fd5b6109a58286868403610acd565b60019250505092915050565b6000806109bc610ac5565b90506109c9818585610d22565b600191505092915050565b6000600160008473ffffffffffffffffffffffffffffffffffffffff1673ffffffffffffffffffffffffffffffffffffffff16815260200190815260200160002060008373ffffffffffffffffffffffffffffffffffffffff1673ffffffffffffffffffffffffffffffffffffffff16815260200190815260200160002054905092915050565b610a636106dc565b81610a6c6105f4565b610a769190611a45565b1115610ab7576040517f08c379a0000000000000000000000000000000000000000000000000000000008152600401610aae90611b57565b60405180910390fd5b610ac18282611165565b5050565b600033905090565b600073ffffffffffffffffffffffffffffffffffffffff168373ffffffffffffffffffffffffffffffffffffffff1603610b3c576040517f08c379a0000000000000000000000000000000000000000000000000000000008152600401610b3390611be9565b60405180910390fd5b600073ffffffffffffffffffffffffffffffffffffffff168273ffffffffffffffffffffffffffffffffffffffff1603610bab576040517f08c379a0000000000000000000000000000000000000000000000000000000008152600401610ba290611c7b565b60405180910390fd5b80600160008573ffffffffffffffffffffffffffffffffffffffff1673ffffffffffffffffffffffffffffffffffffffff16815260200190815260200160002060008473ffffffffffffffffffffffffffffffffffffffff1673ffffffffffffffffffffffffffffffffffffffff168152602001908152602001600020819055508173ffffffffffffffffffffffffffffffffffffffff168373ffffffffffffffffffffffffffffffffffffffff167f8c5be1e5ebec7d5bd14f71427d1e84f3dd0314c0f7b2291e5b200ac8c7c3b92583604051610c899190611684565b60405180910390a3505050565b6000610ca284846109d4565b90507fffffffffffffffffffffffffffffffffffffffffffffffffffffffffffffffff8114610d1c5781811015610d0e576040517f08c379a0000000000000000000000000000000000000000000000000000000008152600401610d0590611ce7565b60405180910390fd5b610d1b8484848403610acd565b5b50505050565b600073ffffffffffffffffffffffffffffffffffffffff168373ffffffffffffffffffffffffffffffffffffffff1603610d91576040517f08c379a0000000000000000000000000000000000000000000000000000000008152600401610d8890611d79565b60405180910390fd5b600073ffffffffffffffffffffffffffffffffffffffff168273ffffffffffffffffffffffffffffffffffffffff1603610e00576040517f08c379a0000000000000000000000000000000000000000000000000000000008152600401610df790611e0b565b60405180910390fd5b610e0b8383836111cf565b60008060008573ffffffffffffffffffffffffffffffffffffffff1673ffffffffffffffffffffffffffffffffffffffff16815260200190815260200160002054905081811015610e91576040517f08c379a0000000000000000000000000000000000000000000000000000000008152600401610e8890611e9d565b60405180910390fd5b8181036000808673ffffffffffffffffffffffffffffffffffffffff1673ffffffffffffffffffffffffffffffffffffffff16815260200190815260200160002081905550816000808573ffffffffffffffffffffffffffffffffffffffff1673ffffffffffffffffffffffffffffffffffffffff168152602001908152602001600020600082825401925050819055508273ffffffffffffffffffffffffffffffffffffffff168473ffffffffffffffffffffffffffffffffffffffff167fddf252ad1be2c89b69c2b068fc378daa952ba7f163c4a11628f55a4df523b3ef84604051610f7f9190611684565b60405180910390a3610f9284848461128f565b50505050565b600073ffffffffffffffffffffffffffffffffffffffff168273ffffffffffffffffffffffffffffffffffffffff1603611007576040517f08c379a0000000000000000000000000000000000000000000000000000000008152600401610ffe90611f2f565b60405180910390fd5b611013826000836111cf565b60008060008473ffffffffffffffffffffffffffffffffffffffff1673ffffffffffffffffffffffffffffffffffffffff16815260200190815260200160002054905081811015611099576040517f08c379a000000000000000000000000000000000000000000000000000000000815260040161109090611fc1565b60405180910390fd5b8181036000808573ffffffffffffffffffffffffffffffffffffffff1673ffffffffffffffffffffffffffffffffffffffff1681526020019081526020016000208190555081600260008282540392505081905550600073ffffffffffffffffffffffffffffffffffffffff168373ffffffffffffffffffffffffffffffffffffffff167fddf252ad1be2c89b69c2b068fc378daa952ba7f163c4a11628f55a4df523b3ef8460405161114c9190611684565b60405180910390a36111608360008461128f565b505050565b61116d6106dc565b816111766105f4565b6111809190611a45565b11156111c1576040517f08c379a00000000000000000000000000000000000000000000000000000000081526004016111b890611b57565b60405180910390fd5b6111cb8282611294565b5050565b600073ffffffffffffffffffffffffffffffffffffffff168373ffffffffffffffffffffffffffffffffffffffff161415801561123857504173ffffffffffffffffffffffffffffffffffffffff168273ffffffffffffffffffffffffffffffffffffffff1614155b80156112715750600073ffffffffffffffffffffffffffffffffffffffff164173ffffffffffffffffffffffffffffffffffffffff1614155b1561127f5761127e6113ea565b5b61128a8383836113f8565b505050565b505050565b600073ffffffffffffffffffffffffffffffffffffffff168273ffffffffffffffffffffffffffffffffffffffff1603611303576040517f08c379a00000000000000000000000000000000000000000000000000000000081526004016112fa9061202d565b60405180910390fd5b61130f600083836111cf565b80600260008282546113219190611a45565b92505081905550806000808473ffffffffffffffffffffffffffffffffffffffff1673ffffffffffffffffffffffffffffffffffffffff168152602001908152602001600020600082825401925050819055508173ffffffffffffffffffffffffffffffffffffffff16600073ffffffffffffffffffffffffffffffffffffffff167fddf252ad1be2c89b69c2b068fc378daa952ba7f163c4a11628f55a4df523b3ef836040516113d29190611684565b60405180910390a36113e66000838361128f565b5050565b6113f641600654610a5b565b565b505050565b600080fd5b600080fd5b600080fd5b600080fd5b600080fd5b60008083601f84011261142c5761142b611407565b5b8235905067ffffffffffffffff8111156114495761144861140c565b5b60208301915083602082028301111561146557611464611411565b5b9250929050565b60008060208385031215611483576114826113fd565b5b600083013567ffffffffffffffff8111156114a1576114a0611402565b5b6114ad85828601611416565b92509250509250929050565b600081519050919050565b600082825260208201905092915050565b60005b838110156114f35780820151818401526020810190506114d8565b60008484015250505050565b6000601f19601f8301169050919050565b600061151b826114b9565b61152581856114c4565b93506115358185602086016114d5565b61153e816114ff565b840191505092915050565b600060208201905081810360008301526115638184611510565b905092915050565b600073ffffffffffffffffffffffffffffffffffffffff82169050919050565b60006115968261156b565b9050919050565b6115a68161158b565b81146115b157600080fd5b50565b6000813590506115c38161159d565b92915050565b6000819050919050565b6115dc816115c9565b81146115e757600080fd5b50565b6000813590506115f9816115d3565b92915050565b60008060408385031215611616576116156113fd565b5b6000611624858286016115b4565b9250506020611635858286016115ea565b9150509250929050565b60008115159050919050565b6116548161163f565b82525050565b600060208201905061166f600083018461164b565b92915050565b61167e816115c9565b82525050565b60006020820190506116996000830184611675565b92915050565b6000602082840312156116b5576116b46113fd565b5b60006116c3848285016115ea565b91505092915050565b6000806000606084860312156116e5576116e46113fd565b5b60006116f3868287016115b4565b9350506020611704868287016115b4565b9250506040611715868287016115ea565b9150509250925092565b600060ff82169050919050565b6117358161171f565b82525050565b6000602082019050611750600083018461172c565b92915050565b60006020828403121561176c5761176b6113fd565b5b600061177a848285016115b4565b91505092915050565b600061178e8261156b565b9050919050565b61179e81611783565b82525050565b60006020820190506117b96000830184611795565b92915050565b600080604083850312156117d6576117d56113fd565b5b60006117e4858286016115b4565b92505060206117f5858286016115b4565b9150509250929050565b7f4f6e6c79204f776e65722063616e206368616e67652072657761726400000000600082015250565b6000611835601c836114c4565b9150611840826117ff565b602082019050919050565b6000602082019050818103600083015261186481611828565b9050919050565b7f4f6e6c792074686520636f6e7472616374206f776e65722063616e2063616c6c60008201527f20746869732066756e6374696f6e000000000000000000000000000000000000602082015250565b60006118c7602e836114c4565b91506118d28261186b565b604082019050919050565b600060208201905081810360008301526118f6816118ba565b9050919050565b7f4e487b7100000000000000000000000000000000000000000000000000000000600052603260045260246000fd5b7f4e487b7100000000000000000000000000000000000000000000000000000000600052601160045260246000fd5b6000611966826115c9565b91507fffffffffffffffffffffffffffffffffffffffffffffffffffffffffffffffff82036119985761199761192c565b5b600182019050919050565b7f4e487b7100000000000000000000000000000000000000000000000000000000600052602260045260246000fd5b600060028204905060018216806119ea57607f821691505b6020821081036119fd576119fc6119a3565b5b50919050565b6000611a0e826115c9565b9150611a19836115c9565b9250828202611a27816115c9565b91508282048414831517611a3e57611a3d61192c565b5b5092915050565b6000611a50826115c9565b9150611a5b836115c9565b9250828201905080821115611a7357611a7261192c565b5b92915050565b7f45524332303a2064656372656173656420616c6c6f77616e63652062656c6f7760008201527f207a65726f000000000000000000000000000000000000000000000000000000602082015250565b6000611ad56025836114c4565b9150611ae082611a79565b604082019050919050565b60006020820190508181036000830152611b0481611ac8565b9050919050565b7f45524332304361707065643a2063617020657863656564656400000000000000600082015250565b6000611b416019836114c4565b9150611b4c82611b0b565b602082019050919050565b60006020820190508181036000830152611b7081611b34565b9050919050565b7f45524332303a20617070726f76652066726f6d20746865207a65726f2061646460008201527f7265737300000000000000000000000000000000000000000000000000000000602082015250565b6000611bd36024836114c4565b9150611bde82611b77565b604082019050919050565b60006020820190508181036000830152611c0281611bc6565b9050919050565b7f45524332303a20617070726f766520746f20746865207a65726f20616464726560008201527f7373000000000000000000000000000000000000000000000000000000000000602082015250565b6000611c656022836114c4565b9150611c7082611c09565b604082019050919050565b60006020820190508181036000830152611c9481611c58565b9050919050565b7f45524332303a20696e73756666696369656e7420616c6c6f77616e6365000000600082015250565b6000611cd1601d836114c4565b9150611cdc82611c9b565b602082019050919050565b60006020820190508181036000830152611d0081611cc4565b9050919050565b7f45524332303a207472616e736665722066726f6d20746865207a65726f20616460008201527f6472657373000000000000000000000000000000000000000000000000000000602082015250565b6000611d636025836114c4565b9150611d6e82611d07565b604082019050919050565b60006020820190508181036000830152611d9281611d56565b9050919050565b7f45524332303a207472616e7366657220746f20746865207a65726f206164647260008201527f6573730000000000000000000000000000000000000000000000000000000000602082015250565b6000611df56023836114c4565b9150611e0082611d99565b604082019050919050565b60006020820190508181036000830152611e2481611de8565b9050919050565b7f45524332303a207472616e7366657220616d6f756e742065786365656473206260008201527f616c616e63650000000000000000000000000000000000000000000000000000602082015250565b6000611e876026836114c4565b9150611e9282611e2b565b604082019050919050565b60006020820190508181036000830152611eb681611e7a565b9050919050565b7f45524332303a206275726e2066726f6d20746865207a65726f2061646472657360008201527f7300000000000000000000000000000000000000000000000000000000000000602082015250565b6000611f196021836114c4565b9150611f2482611ebd565b604082019050919050565b60006020820190508181036000830152611f4881611f0c565b9050919050565b7f45524332303a206275726e20616d6f756e7420657863656564732062616c616e60008201527f6365000000000000000000000000000000000000000000000000000000000000602082015250565b6000611fab6022836114c4565b9150611fb682611f4f565b604082019050919050565b60006020820190508181036000830152611fda81611f9e565b9050919050565b7f45524332303a206d696e7420746f20746865207a65726f206164647265737300600082015250565b6000612017601f836114c4565b915061202282611fe1565b602082019050919050565b600060208201905081810360008301526120468161200a565b905091905056fea2646970667358221220420fc6946c35050af73d9e591219c627cef2f2b49a6b1b3b52ea930a3c15fd4c64736f6c63430008130033",
  "linkReferences": {},
  "deployedLinkReferences": {}
}